:020000040000FA
:10000000900F202085010000890100008B01000075
:1000100000000000000000000000000000000000E0
:100020000000000000000000000000008D01000042
:1000300000000000000000008F010000910100009E
:1000400093010000C11F0000930100009301000014
:100050009301000093010000930100009301000050
:100060000000000093010000930100000000000068
:100070000000000093010000930100001D3D0000FE
:10008000930100009301000093010000693B000010
:100090009301000093010000000000000000000038
:1000A0009301000093010000000000000000000028
:1000B0009301000000000000930100009301000084
:1000C00000F002F800F032F80CA030C8083824180C
:1000D0002D18671EA246AB4654465D46AC4201D180
:1000E00000F024F87E460F3EB6460FCC0126334280
:1000F00000D0FB1A3343A246AB461847DC5400003D
:10010000FC5400000000000000230024002500260D
:10011000103A01D378C1FBD8520700D330C100D5C3
:100120000B6070471FB51FBD10B510BD01F0BAF9C7
:100130001146FFF7F7FF03F090FE01F0D2F903B488
:10014000FFF7F2FF03BC01F02DFA000070B5054681
:100150000C46164602E00FCC0FC5103E102EFAD208
:10016000082E02D303CC03C5083E042E07D301CCCE
:1001700001C5361F03E021782970641C6D1C761EB2
:10018000F9D270BD06480047FEE7FEE7FEE7FEE74E
:10019000FEE7FEE703480449044A054B70470000A8
:1001A000C100000090092020900F2020900B2020FB
:1001B000900B2020F8B5042A2CD3830712D00B789B
:1001C000491C0370401C521E83070BD00B78491C3E
:1001D0000370401C521E830704D00B78491C037027
:1001E000401C521E8B079B0F05D0C91ADF0020232D
:1001F000DE1B08C90AE0FFF7A9FFF8BD1D4608C9C4
:10020000FD401C46B4402C4310C0121F042AF5D2F6
:10021000F308C91A521EF0D40B78491C0370401C15
:10022000521EEAD40B78491C0370401C012AE4D406
:1002300009780170F8BD0000002203098B4273D3D6
:10024000030A8B4258D3030B8B423CD3030C8B42E3
:1002500021D312E003460B437FD4002243088B4294
:1002600074D303098B425FD3030A8B4244D3030B3D
:100270008B4228D3030C8B420DD30902FF2212BA02
:10028000030C8B4202D31212090265D0030B8B427E
:1002900019D300E0090AC30B8B4201D3CB03C01A68
:1002A0005241830B8B4201D38B03C01A5241430B43
:1002B0008B4201D34B03C01A5241030B8B4201D333
:1002C0000B03C01A5241C30A8B4201D3CB02C01A9E
:1002D0005241830A8B4201D38B02C01A5241430A16
:1002E0008B4201D34B02C01A5241030A8B4201D305
:1002F0000B02C01A5241CDD2C3098B4201D3CB01AC
:10030000C01A524183098B4201D38B01C01A52415A
:1003100043098B4201D34B01C01A524103098B425E
:1003200001D30B01C01A5241C3088B4201D3CB0049
:10033000C01A524183088B4201D38B00C01A52412C
:1003400043088B4201D34B00C01A5241411A00D2DC
:1003500001465241104670475DE0CA0F00D0494245
:10036000031000D3404253409C46002203098B42B5
:100370002DD3030A8B4212D38901FC2212BA030A3D
:100380008B420CD3890192118B4208D389019211BF
:100390008B4204D389013AD0921100E08909C30944
:1003A0008B4201D3CB01C01A524183098B4201D346
:1003B0008B01C01A524143098B4201D34B01C01A31
:1003C000524103098B4201D30B01C01A5241C308A9
:1003D0008B4201D3CB00C01A524183088B4201D318
:1003E0008B00C01A5241D9D243088B4201D34B0033
:1003F000C01A5241411A00D201465241104663468A
:100400005B1001D34042002B00D549427047634640
:100410005B1000D3404201B50449002802DC491CAE
:10042000084000E00846C046C04602BDFFFFFF7F0F
:1004300070477047704700000246C80FC0078143ED
:100440004B0030B54B405B009B0D20D01923DB06E1
:10045000C91801231B05994220DB0324A4070425A6
:100460001346AB400BD3002B04D1EB0613409B008B
:10047000E34204D401246407002312195941FF23E5
:100480001B0599420BD2C9000143500F09E0CB0272
:1004900004D501430803024305D0054830BDFF21C0
:1004A000C905084330BD084607210905884330BD0A
:1004B0000000C07FF0B50C46871A9C410D46861A95
:1004C0009D4103D2C01BA141D21963410D0D1F0DE7
:1004D000C94EEC1BAE435CD07F057F0D0026002F7C
:1004E00051D02D05AC46A943DD020123ED0A1B05C1
:1004F0001D4320231B1B24D41746E74038187141A5
:100500002F46E740CC199D402818314661410C0D1B
:1005100027D161449A4013D50023401C5941520011
:100520000ED14008400001224B005205D34207D3B0
:1005300005204007C14201D5B04900E0B04930462E
:10054000F0BD6B00002A00D001229A181F23203C26
:100550001B1B01D5002302E0E540281871410C0D5A
:10056000D7D0012424050919C407CD07400849083C
:10057000E40F28436144002CD5D00024401C614185
:100580009A40D0D1CDE76A05520DD9D1C90FC9071C
:10059000D5E79C4D4E00002801D0012400E0002446
:1005A00034195F00002A01D0012600E00026BE19A0
:1005B000954FAC420CD8AE420AD8B44206D00125C1
:1005C0006D05EC42BCD010461946F0BD9942FCD0F6
:1005D00000203946F0BDF0B51FB40C460F46811A15
:1005E0009F412546861A9D4106D20125ED076F40A1
:1005F000401ABC4152187B41210D1E0D8D1BAC468B
:100600007D4D8D437ED075056D0D7CD00D05AE46BC
:10061000AC431B031B0B794D52429D412023664680
:100620009B1B14D31746F7403818002600907441DE
:1006300060462F460741E41900989D4028186641FE
:1006400016D4714671189A4025D5012320E09318DD
:100650002A466A415200002B00D0521C1E23203E25
:100660009B1B002B61DD3541EE1728186641E8D54C
:10067000001876415B1C9A4000D3401C4B05F318D0
:100680001524E34010D3002B52D071467118D30FBC
:10069000C01802D3491C05B0F0BD0123DB079A4204
:1006A000F9D140084000F6E701225205B21801D105
:1006B000002853D00123CC0ADB029943891E002A6B
:1006C00008D1020C03D0020C0004103902E00246EB
:1006D000002020390023550B05D112020823550BA9
:1006E00001D152010D23550C01D112011B1DD50C56
:1006F00001D192009B1C150D01D152005B1C2025DD
:10070000EE1A01E02CE022E00546F5401543984042
:10071000CA1AE10769181305C918002ABBDA0320B1
:1007200040070818C10FC9070FE071466118B2E70A
:10073000F10740080843711071444A000CD00123AE
:100740005B059A42A7D2C90FC9070020A3E7490554
:10075000490D26D1002001E00028F4D100219AE7BC
:10076000284D6600002801D0012100E00021711809
:100770005F00002A01D0012600E00026BE19224FAA
:10078000A94210D8AE420ED8B14208D001256D055D
:10079000E94206D01946A802414010467BE79C4238
:1007A00001D0214677E70020394674E710B50C46A2
:1007B0005C4005D50124E4076340FFF70CFF10BD42
:1007C000FFF778FE10BD30B40C465C4004D5012420
:1007D000E407634030BC6DE630BCFCE670B5012434
:1007E000E40761400D465D4002D4FFF763FE70BD33
:1007F0006340FFF7F0FE70BDFF0700000000F0FF50
:100800000000F07F0000E0FF0000F87FF0B5F94D38
:100810000C091E092C402E402F468BB0A7437DD0DB
:10082000B543FCD0002E7AD0002CFCD00D465D40A4
:10083000ED0F2543AC1BFF25AD0464190894C502D8
:10084000440DC9022143500DDC0204430120C007BE
:1008500001430443D2020191200C110C00958C46F7
:10086000010423468B430A9161460904E24D8A4301
:100870000991010A7D4449198039097805464D439B
:1008800001266D18F605751B6943C90C640B891C9C
:100890004C436418B5012C1B250C2E04B4434C4367
:1008A0004D43210C691889090591009DE90701D084
:1008B0000121C90704912C4601996708CD072F43F0
:1008C0004C08059DE10B4D432D0C294666467543AA
:1008D00002950D4645432E46029D7D1BB441009571
:1008E0000D465D4301942C0C2F040D465543AE4636
:1008F0002D0C3D43029503947546049C2D04641B06
:10090000049406D2029C039D641C00267541039545
:10091000029401AC70CC009F7D1B01E03EE162E1DE
:10092000B44109040095079101940599A408614315
:10093000090C0C464443650BE7040C4666467443B9
:10094000A646640B3C43039502947446049DE4045C
:100950002C1B049406D2029C039D641C0026754146
:100960000395029401AC70CC009F7D1BB4410194AF
:100970000C465C430095650FE7000C465443A646C1
:10098000640F3C43039502947446049DE4002C1BC1
:10099000049406D2029C039D641C002675410395B5
:1009A000029401AC70CC009F7D1BB441AE09AF0630
:1009B000049DC900AD092F43049DA406AD0604950E
:1009C000079D344369180791059DE10B4D432D0C9C
:1009D00029466646754302950D4645432E46029DBF
:1009E0007D1BB44100950D465D4301942C0C2F04F2
:1009F0000D465543AE462D0C3D4302950394754676
:100A0000049C2D04641B049406D2029C039D641C68
:100A1000002675410395029401AC70CC009F7D1BAC
:100A2000B44101948C050694079C890A61180095CD
:100A30000791019C0599A4086143090C0D464543A3
:100A4000680BEF040D46644665436C0B3C43049F02
:100A5000ED047D1BAC4602D20025641C6841009E5B
:100A6000019D371B85410846584301950C46460FAA
:100A7000C5005443600F28436546E4002C1B02D296
:100A80000025401C6E41019D3F1AB5412846BD0915
:100A9000800628438446A009BF064E020699A40694
:100AA00076180743079D002068410A99079019436B
:100AB0000020099B00906046FF1913434041E20F5C
:100AC00064003A43A4460446D71A8C41A04203D995
:100AD0000120009020463A46C70F941840416246D4
:100AE000D20F2243644664000494009CBE46640016
:100AF000D71AA446044602978C417746002F01D1AD
:100B0000A04204D96046401C8446029A2046C40F85
:100B1000A64694184041049A0546D20F22436446E3
:100B20006400D31A8D417146002901D1A84202D92F
:100B300028461A46641C10430122002800D01643A0
:100B400061020020079B891904465C410223002CA6
:100B500002DB491813466441089DCE0A2D145D1925
:100B60004B056705E10A2C050D1908993E43C90795
:100B70006940002B08D0934006D30022761C5141D7
:100B8000002B01D1760876001C4A002D43DB15426C
:100B900041D0AA433FD030460BB0F0BD06180D46F9
:100BA0004D41174C7642AC411AD395181C465C4116
:100BB000134A6D42A24113D3012252054C00D44284
:100BC0000AD15C00D4420BD04B4002D592021143B3
:100BD000E2E749004908DFE75940C90FC90718E0B3
:100BE00000200849D8E7054801420DD10342F7D05B
:100BF000F2E700000000FF07D44500000000F07F8E
:100C00000000E0FF0000F87F114859400143C01286
:100C100041400020C0E70123089A9B069A4205DC68
:100C2000032252078918C90FC907B5E705225207E1
:100C30008918074A1143D2125140ADE770B51546E5
:100C40001C4602460B4628462146FFF7DFFD70BDD5
:100C5000FFFFFF7F0346CA02400D10B510430A157F
:100C600004D00124E4072043002A05DB0A4CA21A21
:100C700004D4D040FF2A00DD002010BD4A00002B24
:100C800001D0012000E00020101801225205D042BE
:100C9000F2D8C817C04310BD1E0400001F22030C69
:100CA00002D10F22000402D0030E03D004E0002082
:100CB000014670470002083A030F01D10001121FDC
:100CC000830F01D18000921E002801DB4000521EDC
:100CD000120551184205C012411810467047C10F45
:100CE000C90700D04042012292071143D6E70121F3
:100CF0008907D3E7F0B58B4C0F09254689B0BD4372
:100D00007BD01D092646AE43FAD00E465E402740F2
:100D1000F60F3E43254071D024012142FBD0FF2431
:100D2000AD19A4042D1B039501252D05DB02DB0A5B
:100D3000C9022B43C90A29431E010901040F130FDD
:100D4000050121431701880B820391432D098C462D
:100D5000A90B1E438A039543B30B9A0396433F099D
:100D6000BA0B9403A74302962E467E430497B646D9
:100D70004E19D7190C460196544305977E43371BED
:100D80007646BF1B3601B646BE0B36190096764630
:100D9000BC043719009C01D3641C00946400002F2C
:100DA00001D001263443029E049F754366467E436C
:100DB0000496760034196E0034190094029C019E4A
:100DC0001C196643751BAE46069465464519059C7D
:100DD00005956C43594375460891691A0191049E23
:100DE00001465143A41B0491611A009C0791E1063E
:100DF00005D061090122114302E072E06EE0610951
:100E0000089D00272C0A2D066918049D7C412A0A9A
:100E10002D066918019D6241AC0DAD026D1854415B
:100E2000079A910D920255196141029A64465843FE
:100E30005443069B059A5A43121A131B9A0E9B01A0
:100E40005B187A41010B0005C3185141220A2006A4
:100E500044195A419A4200D2491C01204002814261
:100E600003D315230226F64302E014230326F64398
:100E70002020C51AA9401746AF40DA400A43204651
:100E80000399D8400914731819055118039A384367
:100E9000D2075140AC4009D00122944006D3002231
:100EA000401C5141002C01D1400840001E4A934291
:100EB00012D3012203989206904207DB05204007D7
:100EC00009181A480143C012414004E003204007BA
:100ED0000818C10FC907002009B0F0BD0020F107B4
:100EE000FAE705180C464C4111486D42A04115D354
:100EF00094181A465A410E48644290410ED301207C
:100F00004A004005824209D35A00824206D3594022
:100F1000C90F084AC90700201143DDE70020064930
:100F2000DAE700000000FF07FE070000FFFFFF7F79
:100F30000000E0FF0000F07F0000F87F0121C905FC
:100F40000123411842001B06D3185B0E0AD0C110C2
:100F50000722D206891840075242D14201D55200D9
:100F600089187047090208D50146002A03D0C10F2D
:100F7000C9070020704710467047420202D0002087
:100F800002497047072109050143F4E70000F87F93
:100F9000F0B5FF252D04C609C209FF2704462E40DF
:100FA0000137CB093E4348402A402B400746002AE0
:100FB0006BD0002B69D0AA4267D0AB4265D0002825
:100FC00000DA32460125ED0529432C4309022002AF
:100FD000090AD21A4B0C7F24E31A434C000A7C44C2
:100FE000E35C7D242404121914145B00A2188842C7
:100FF00001D3521C00E0400049420C465C432411DE
:101000005C43DB016415E318040A5C43C502200D50
:101010000C4644436419250A5D432303EC0C0D463A
:10102000654300030019EB184C42A34201D35B183F
:10103000401CD4052018002B07D05B00C91804D32E
:10104000401C002901D1400840003F2189048A4208
:1010500009D3002A08DC1106090F04D0032149072F
:101060004018C00FC007F0BD0122410012068918C8
:101070007F2252069142F6D205214907C84201D586
:101080009010F0BDFF20C005F0BD002F00DA324601
:101090001648AA4207D2AB4205D21902090E17D050
:1010A000F80FC007F0BDFF2563002D06AB42F9D84D
:1010B0004900A942F6D8AB4201D1A942F2D0A942D7
:1010C00001D1002101E061004908D0050843F0BDCD
:1010D0001102090EFBD0FF200243D005F0BD0A46E5
:1010E0000146104654E70000EA3E00000000C07FC1
:1010F00010B501469E240002CA15A307002A02D09B
:101100001843002A04DBA21A002A0CDDD04010BDCF
:101110001206120E01D140004008A21A03D4D0409A
:1011200040420028F3DDFF2248001206904201D918
:10113000002010BDC817C043584010BD1F22030C2B
:1011400002D10F2200041CD0030E01D10002083A84
:10115000030F01D10001121F830F01D18000921EE5
:10116000002801DB4000521ED2055118021251180E
:101170001922904004D3491C002801D14908490094
:1011800008467047C10FC90700D0404201229207AC
:101190001143D3E701218907D0E710B500F0F8F833
:1011A000006810BD10B5044600F0F2F8046010BDF0
:1011B000F0B501230A0DDB0200249A43E443002525
:1011C000002A28D05B1E9A4223D05B10D61AA64272
:1011D00028DB721C48D0342E18D20222142E2BD8B1
:1011E00022D00B460D36B34001D100280FD0002489
:1011F000701E0B468340DB0FF2412846551EA94363
:10120000002B03D08918002C00D09143F0BD01249D
:10121000EEE79A4239D04A000243F7D0C90FC90716
:101220002846F0BD002223E00122C30F400001D078
:101230000024E2E70124E0E70346133EB34011D067
:101240000023741E0746A740FC0FF2411746521EAA
:101250009043002CE5D0002B00D0521CC0196941EE
:101260009043F0BD0123ECE701220B0318430AD0A1
:101270000023C90FC9072846002AF2D0002BF0D15D
:10128000054A1143F0BD0123F3E70A0301D1002809
:10129000F8D000200149F0BD0000F03F0000F87FC9
:1012A00070B505464800440D124B0020002C0AD0B2
:1012B000634008D09A4206DA6642B24203DD120564
:1012C0004019514170BD002C08D0002B09D0C90F26
:1012D000C907002AF6DB084A114370BDC90FC907C8
:1012E00070BD28460A03104302D00020034970BD98
:1012F000284670BDFF0700000000F07F0000F87F67
:1013000030B5C30D1906214A090E31D0FF292FD05F
:1013100000283ADB01025002014301207D33C34023
:1013200000D24908012080071724091A2406490819
:1013300082102343FF252D064C00211A04D4891A5C
:1013400002D45400201800E0214652085B19F3D55E
:101350001A220446944007D382068A4203D1802190
:101360008030884300E08030C009D905081830BDBE
:10137000FF2904D04100FAD0C00FC00730BD4102A0
:1013800001D0104630BD0028FCDAFAE70000C07F2B
:1013900000487047A8012020F8B5264C4E00069D55
:1013A000A6420AD8A64201D1002806D15E00A64274
:1013B00003D8A6420AD1002A08D00D2424042542CD
:1013C00033D02946002000F094F8F8BD0C461C43A9
:1013D00011D4994207D0C81A02D3EFF30080F8BDA8
:1013E000EFF30080F8BD801A02D3EFF30080F8BD60
:1013F000EFF30080F8BD09242407E5008B4207D0F5
:10140000581A02D3EFF3008006E0EFF3008007E004
:10141000101A03D3EFF30080A04303E0EFF3008042
:10142000A043284380F30088F8BD009500F078F8C9
:10143000F8BD00000000E0FF10B5FF231B064400CC
:101440009C421DD84C009C421AD80346124A0B43BA
:1014500007D4401A02D3EFF3008010BDEFF30080F1
:1014600010BD081A03D3EFF30080904305E0EFF3BB
:10147000008001219043C907084380F3008810BD14
:101480000D231B041A4204D01146002000F031F84D
:1014900010BD00F04FF810BD0000009000487047EC
:1014A000A80120207546FFF7F9FFAE460500694602
:1014B0005346C008C000854618B020B5FEF76AFE46
:1014C00060BCB64600260027C0C5C0C5C0C5C0C5A3
:1014D000C0C5C0C5C0C5C0C5403D490849008D460E
:1014E000704710B50446C046C0462046FEF727FEAA
:1014F00010BDC80212D54803400F002804D0C8030D
:10150000C043012188407047EFF3008000010009CB
:1015100003210907084380F30088704700207047C3
:1015200010B500200249029A00F00CF810BD00002E
:101530000000F87F10B5024800F004F810BD00006C
:101540000000C07F10B50C461107090F092904D00F
:101550000A290AD008290CD104E011460820FFF717
:10156000C8FF06E0510606D501E0510601D501206D
:10157000C007214610BDD10607D501010909CC08D5
:101580004907000E0006044309E0410F2002490705
:10159000000A0143200E00061D22D14101430846E6
:1015A000E7E7000001491820ABBEFEE72600020075
:1015B000704770B58C180578401C6B075B0F01D124
:1015C0000378401C2A1106D10278401C03E00678FB
:1015D000401C0E70491C5B1EF9D12B0705D400235B
:1015E000521E0DD40B70491CFAE70378401CCB1A2D
:1015F000921C03E01D780D70491C5B1C521EF9D52E
:10160000A142D8D3002070BDF0B587B001F062F8D8
:10161000734DEC6C2046214603F058FB0646686D7E
:101620002F46014603F052FB05463046294603F09B
:1016300089FA3E6D03F0D8F901463046FFF7A8FC61
:10164000FFF77CFC03F074F80690059130463146B4
:1016500003F03CFB294603F075FA03F0C5F9014697
:101660002046FFF795FCFFF769FC03F061F8039053
:101670000291B86C5B4D294603F028FB0721CC068C
:10168000214603F023FB019057490860B86D2946B5
:1016900003F01CFB214603F019FBFFF74FFC534AF4
:1016A000534BFFF727FB07460E46524D2868FFF7BE
:1016B00045FC02460B4638463146FFF777F8FEF701
:1016C000BBFE049028604648C06D464903F0FEFA10
:1016D000214603F0FBFAFFF731FC444F3A46444BF6
:1016E000FFF708FB04460E46434D2868FFF726FC2B
:1016F00002460B4620463146FFF758F8FEF79CFE9F
:10170000064628600198FFF719FC3A46384BFFF768
:10171000F1FA04460D46394F3868FFF70FFC0246D0
:101720000B4620462946FFF741F8FEF785FE01905B
:10173000386003204407324B039802992246FFF792
:10174000D9FAFEF779FEFFF7F9FB2E4A2E4BFFF789
:10175000D1FA07460D463046FFF7F0FB2B4E2C4BD7
:101760003246FFF7C7FA02460B4638462946FFF7CE
:101770001DF8FEF761FE1A4F7860264B0698059912
:101780002246FFF7B7FAFEF757FEFFF7D7FB1D4AD1
:101790001D4BFFF7AFFA04460D460498FFF7CEFB4A
:1017A00032461B4BFFF7A6FA02460B462046294657
:1017B000FEF7FCFFFEF740FE38600198FFF7BEFB26
:1017C00004460D46144A154BFFF794FA22462B4661
:1017D000FEF7ECFFFEF730FEB86007B0F0BDC04684
:1017E000840820200000FA440C0220207B14AE471D
:1017F000E17A843FF4082020800920200807202077
:1018000094A94CC0666666666666EE3FA099999993
:101810009999A93F94A94C4085B69C4B7155C53FF9
:10182000811E091F00BFFCD270471140036893431B
:101830000B43036070471140036893430B430360FD
:10184000704700000F20800105490A6802430A60C2
:101850007047C04602490A6802430A607047C046A2
:1018600048300A4095225201815070470149086072
:101870007047C046A0120A4095225201815070471D
:101880000120C005014908607047C046E0120A40C7
:1018900080003549425801235B061343435070478B
:1018A0000F20800102490A6802430A607047C0465F
:1018B00028300A40014A81507047C046D0120000CB
:1018C0000120C005014908607047C046D0120A4097
:1018D0000121C902DE4A42507047C0460F208101F3
:1018E000014800680840704738300A4080001E49AF
:1018F000014A42507047C0468100040080001A49E6
:10190000034A42507047C04607480149016070478A
:101910008100060080001449812242507047C04671
:101920000148812101607047D480424080000E4907
:10193000014A42507047C0468100020001480249F6
:1019400001607047588042408200040080000649D0
:10195000014A42507047C0468400040080220A4376
:1019600080000149425070470480424004490968A0
:10197000084070470120C1050148006808407047D1
:1019800080130A40014909680840704780330A40C3
:101990002722D20180580840704700000149434A7D
:1019A0004250704704080000FF20000302490A6803
:1019B00002430A607047C04690330A40064A81508D
:1019C0007047C046014908607047C04690120A40FF
:1019D000014A81507047C04690120000014804211E
:1019E00001607047B0120A400120000237490A68BE
:1019F00002430A607047C0460548016801220A4355
:101A0000026070470248016804220A43026070477E
:101A100028320F4001488E490160704700280F406E
:101A200010B5002A0FD091235B01C3180020DC6998
:101A30002405240F05D00C5C1C60401C8242F6D1AA
:101A4000104680B210BD002080B210BD084A8358F5
:101A500080210B43835080180F22120243681340E9
:101A60000122D2029342F7D102688A430260704792
:101A700038120000014800687047C04618320F4015
:101A8000034800680F210140484248417047C04662
:101A90003C320F4001480068C0B270471C320F4012
:101AA0000148DE490160704704280F40030000B17F
:101AB000014800210160704714320F4080B50320B7
:101AC000410202480A46FFF7B0FE80BD00320F40D7
:101AD00070B50A780C231A400124240305196E6896
:101AE0009E43B2186A604978072211400359934314
:101AF0005918015170BD000080B507200202064848
:101B00000021FFF792FE80BD80B503480021072227
:101B1000FFF78BFE80BDC04638320F4001481F21C1
:101B20000160704724320F40B0B5144640000143B5
:101B3000054D064A2846FFF77EFE281D2104C91DD3
:101B4000034AFFF778FEB0BD10320F40FF070000D8
:101B50000700FF0F02480168022008407047C04696
:101B6000401140400120000302490A6802430A6014
:101B70007047C04604010B400248016810220A4326
:101B8000026070473C010B40014800210160704732
:101B900008030B4080B50120420202480021FFF7F4
:101BA00044FE80BD38010B4080B50348002103226C
:101BB000FFF73BFE80BDC04600010B4070B582B010
:101BC0000B794A79002A24D0174A21242401202B9A
:101BD00000D070348218002B00D18824156C4C4E34
:101BE00035402D191564556C35402C195464146812
:101BF000864D2C40146054682C40546000241462BC
:101C000054628F24E443156D25401565556D2540BC
:101C100055656A4613718B795371096800911146B5
:101C200000F01EF802B070BD38180000E349012230
:101C3000425070470248016802220A43026070471E
:101C4000283086400121C902A34A42507047C0464D
:101C50000100002601480068C0B27047203086406D
:101C6000F0B5684A8218294BC318087920280DD08E
:101C700000281DD10C68641E5460D56E244C25408C
:101C80008835D5661646703688251DE00C68641EBA
:101C90005460D46E1E4D2C401E4EA419D466146F91
:101CA0002C40A4191467012465071B4C16460BE051
:101CB0000C6864085460D66E154C26400525ED016D
:101CC0007619D66616467036376827402F43376038
:101CD000D46A4E4D2C40D462146B2C401463002403
:101CE000D46414658F24E443D56F2540D5671D68FF
:101CF00025401D6049790143BD2008401168074B0C
:101D00000B40C018801C1060F0BDC0468418000055
:101D100024493E0001040000FFFFFFCF4000FFCF39
:101D2000B0B54A68364BC250364A80180A78222A23
:101D300058D8930001A4E3589F46C046DB1D00001D
:101D4000E51D0000DB1D0000E51D0000E51D000095
:101D5000E51D0000E51D0000E51D0000E51D00007B
:101D6000E51D0000E51D0000E51D0000E51D00006B
:101D7000E51D0000E51D0000E51D0000C91D000077
:101D8000E51D0000C91D0000E51D0000E51D000067
:101D9000E51D0000E51D0000E51D0000E51D00003B
:101DA000E51D0000E51D0000E51D0000E51D00002B
:101DB000E51D0000E51D0000E51D0000C91D000037
:101DC000E51D0000C91D000003231B0704689C4398
:101DD00001235B07E318036004E003231B07046887
:101DE0009C4304600B8AC360CB68074C1C40C36AE9
:101DF000064D1D402B19C362097A11430160B0BD25
:101E00000818000004180000777702008888FDFF9A
:101E100001494E4A4250704704080000030000B1D7
:101E200001480321016070470011864010B5072367
:101E30009B04194092008018024A84589C43611800
:101E4000815010BD3018000010B5029CA40000198C
:101E500011431943014A815010BDC046501800007B
:101E600092008018014A81507047C0461018000047
:101E700010B50122120383180C789C604B788350B4
:101E80008978014A815010BD0C1100000248016898
:101E900001220A4302607047043886400120800214
:101EA000014908607047C046489010403E480168AC
:101EB00001220A43026070470120800202490A6839
:101EC00002430A607047C04628901040014802490A
:101ED0000160704700881040010000260120810247
:101EE000014800680840704738901040B0B5112292
:101EF000120283580124A34383500B888C781C431F
:101F00008B882343094C1C408358094D1D4063199D
:101F100083508B79CC791C43097A21437E23194065
:101F2000801842689A4351184160B0BD186700009C
:101F3000E798FDFF01480068C0B270472491104047
:101F4000014802490160704704881040030000B155
:101F500010B50A4C20460C30D021094AFFF765FC29
:101F60002046103015213F22FFF75FFC2168012237
:101F700011402046FFF759FC10BDC04604911040A7
:101F8000FFFF000010B50122120383180C789C603B
:101F90004978815010BD000080B50320C20302487B
:101FA0000021FFF742FC80BD00911040034A8018D9
:101FB00002681206FCD481617047C0460811000017
:101FC00070B5FFF7C7FD00286DD0FFF787FC04460A
:101FD000400619D540252846FFF73CFC2846FFF768
:101FE000D1FC402803D14020FFF7CCFC0CE0802539
:101FF0002846FFF7C7FC2846FFF7C4FC802803D01B
:102000002C480168491E0160200619D58025284604
:10201000FFF720FC2846FFF7B5FC802803D180207D
:10202000FFF7B0FC0CE040252846FFF7ABFC284644
:10203000FFF7A8FC402803D01E480168491C016036
:10204000012005024602E00517D52846FFF702FCED
:102050002846FFF797FCA84203D12846FFF792FCD9
:102060000BE03046FFF78EFC3046FFF78BFCB042AA
:1020700003D011480168491E0160344213D0304634
:10208000FFF7E8FB3046FFF77DFCB04203D1304656
:10209000FFF778FC07E02846FFF774FC2846FFF7B7
:1020A00071FCA84200D170BD03480168491C016061
:1020B00070BDC046500220206002202070B5054649
:1020C00008060ED00C46084E07E029783046FFF788
:1020D0006DFF6D1C641E200603D0002DF5D1002578
:1020E000F8E7012070BDC046008010400146384826
:1020F0000022026002E0521C072A07D00B46D340A0
:10210000DB07F8D003685B1C0360F4E7026800207B
:10211000032A00DB56E0491E5F2900D93DE0C04696
:102120007944097949008F442F313335383B384D94
:102130003838383D3838383F383838383838384209
:102140003838383838383845383838383838383802
:1021500038383838383838483838383838383838EF
:10216000383838383838384A3838383838383838DD
:1021700038383838383838383838383838383838DF
:10218000383838383838384C12481BE0134819E0D2
:10219000114817E00320800714E01648006811E09A
:1021A0000F480FE00F480DE0012080070AE07F2074
:1021B000C00507E08120C00504E00D4802E00A48A0
:1021C00000E00A480B4908600B4908607047C046A8
:1021D0001C0220200000C0C00000A0C0000080C081
:1021E000000040C0000080BF0000C0400000A040D0
:1021F000000040401802202014022020F0B581B0D9
:1022000001273D06234C20462946FFF7C1FB401B12
:10221000414241418E013D0520462946FFF7B8FB6A
:10222000401B4142414148018519FE061A4831468A
:10223000FFF7AEFB801B4142414108012D18FE040F
:1022400020463146FFF7A4FB801B41424141C800B4
:102250002D18BE0420463146FFF79AFB801B4142F1
:10226000414188002D183E030B483146FFF790FB93
:10227000801B4142414148002E183D04204629461A
:10228000FFF786FB401B414241417018C0B201B0CC
:10229000F0BDC04600200A4000000A4080B5022080
:1022A00001F090FD80BD0000F0B581B01C461546E0
:1022B00007466A4611706A4811461A46FFF7B0FB96
:1022C000FFF7D8FB8006FBD50026012238463146B1
:1022D000FFF72AFCFFF7CEFB4006FBD4FFF7CAFB53
:1022E0008006FBD55E48FFF7B1FB01213846224648
:1022F000FFF71AFC002C09D0FFF7C2FB0028FBD126
:10230000FFF7C8FBA855761CA642F5D101B0F0BD79
:10231000F0B581B00446012635062846FFF7A6FA37
:10232000F605002711E03046FFF7A0FAFFF7B6FFE9
:102330002846FFF747FBFFF7B1FF2846FFF796FA5D
:10234000781C6400072F074609D22846FFF78EFA4B
:1023500060B20028E7D53046FFF734FBE6E701B06E
:10236000F0BDB0B50125EC052046FFF72BFB2D068F
:102370002846FFF727FBFFF791FF2046FFF776FA85
:10238000FFF78CFF2846FFF771FAB0BDB0B5012505
:102390002C062046FFF76AFAED052846FFF766FA95
:1023A000FFF77CFF2046FFF70DFBFFF777FF28467E
:1023B000FFF708FBFFF772FFB0BD70B501252C06D3
:1023C0002046FFF753FAED052846FFF7FBFAFFF723
:1023D00065FF2046FFF7F6FAFFF760FFFFF750FAB8
:1023E000FFF792FAFFF7C6FA0646FFF799FAFFF7EA
:1023F00067FAAE4202D1FFF7C9FF70BD2046FFF772
:1024000035FA70BD70B582B01C46054600200090BC
:102410006B4619700190002C05D06846401C11468F
:102420002246FDF7C7FE661C0D4C69462046324623
:10243000FFF7F6FAFFF71EFB8006FBD500212846C2
:102440003246FFF771FBFFF715FB4006FBD4FFF7A1
:1024500011FB8006FBD52046FFF7F8FA02B070BDED
:1024600000200F4010B5594C607800280CD0002097
:10247000607020480178491CCAB2082A00D901219D
:10248000017000F091FA11E0607A002804D01A4837
:1024900000210170617207E0607C002806D01648B8
:1024A000012101700020607414480170A078002898
:1024B00001D0A01C0AE0A07A002802D020460A30F1
:1024C00004E0A07C002803D02046123000210170D7
:1024D000E078002801D0E41C08E0E07A002801D070
:1024E0000B3403E0E07C002802D01334002020707D
:1024F00010BDC046500020203C0220203D0220207C
:1025000070B501256C032046FFF730FA001B4142ED
:1025100041412E4E3170AC032046FFF727FA001BD5
:10252000414241413172AC042046FFF71FFA001BC3
:10253000411E884130740020014603E00830491CE8
:10254000182842D03218D379022B09D0012B13D08E
:10255000002B2DD1335C002B11D1D57100231EE04F
:10256000335C002B16D09479462C0ED8131D1479A9
:10257000002C16D0957018E0335C002B02D000239D
:10258000D37115E00223D37112E0002B02D09379AE
:10259000472BF4D29379472B00D3D5705B1C9371F2
:1025A00006E01D70CB00F3185B1D00241C70D47175
:1025B0001379002BC2D053795B1C5371DBB2232BF0
:1025C000BCD3002313715570B8E770BD24022020DE
:1025D00070B514460D4606467F20C005114602F030
:1025E000CDFB314602F072FB06462846214602F03A
:1025F0006DFB314602F0A6FA70BD0000F0B581B067
:1026000000F076F900F094F9C8480068FEF796FCEF
:10261000294A2A4D2B46FEF76DFB06460F46284CED
:102620002068FEF78BFC02460B4630463946FEF723
:10263000BDF8FDF701FF06462060CF480068FEF7B1
:102640007DFC1D4A2B46FEF755FB04460D461D4FEB
:102650003868FEF773FC02460B4620462946FEF713
:10266000A5F8FDF7E9FE054638603046FEF766FC42
:102670000024154B2246FEF73DFB07460E46284632
:10268000FEF75CFC2246104BFEF734FB02460B467D
:1026900038463146FEF78AF8FDF7CEFE0B4D28602E
:1026A0000B4902F037F8002804D1054804602C607B
:1026B0000448046001B0F0BD7B14AE47E17A843F6A
:1026C00054022020640220200000E03F4C02202021
:1026D00000401C46F0B581B07D4C204616302146A6
:1026E000103122460C3201F009FC7A480188C729D2
:1026F00000D988E0491C01801020205EFEF7EFFA27
:1027000000257A4B2A46FEF781F806460F46E06917
:10271000FEF714FC02460B4630463946FEF746F8F3
:10272000FDF78AFEE0611220205EFEF7D8FA2A4605
:102730006E4BFEF76BF806460F46206AFEF7FEFB6F
:1027400002460B4630463946FEF730F8FDF774FE78
:1027500020621420205EFEF7C2FA2A46634BFEF781
:1027600055F806460F46606AFEF7E8FB02460B4640
:1027700030463946FEF71AF8FDF75EFE6062162015
:10278000205EFEF7ACFA2A46584BFEF73FF80646A5
:102790000F46A06AFEF7D2FB02460B46304639468A
:1027A000FEF704F8FDF748FEA0621820205EFEF751
:1027B00096FA2A464D4BFEF729F806460F46E06A80
:1027C000FEF7BCFB02460B4630463946FDF7EEFFEE
:1027D000FDF732FEE0621A20205EFEF780FA2A46FC
:1027E000424BFEF713F806460D46206BFEF7A6FB9C
:1027F00002460B4630462946FDF7D8FFFDF71CFE82
:10280000206301B0F0BD1020205EFEF7BBFC064641
:1028100060631220205EFEF7B5FCA0631420205EEA
:10282000FEF7B0FCE0631620205EFEF7ABFCA16A69
:1028300002F0A4FA20641820205EFEF7A3FCE16AEF
:1028400002F09CFA60641A20205EFEF79BFC216B6C
:1028500002F094FAA064204D2846314601F0D0FAE7
:10286000A868FEF745FCFEF78DFCE064A16B2846E6
:10287000183001F0C5FA286AFEF73AFCFEF782FC30
:102880002065E16B2846303001F0BAFAA86BFEF7FC
:102890002FFCFEF777FC6065216C104E3068104D00
:1028A0002A46FFF795FEA0653060616C0D4E3068DA
:1028B0002A46FFF78DFEE0653060A16C0A4E306855
:1028C0002A46FFF785FE2066306001B0F0BDC046A5
:1028D000840820203E0220200800202040022020E2
:1028E000CBA1C53E440220204802202000006940C0
:1028F00010B50C4801880024046008B2FEF7EFF917
:10290000194A094BFDF782FF03229207184BFEF785
:10291000F1F9184B2246FEF7EDF9FDF78DFD03495D
:10292000086010BD50022020CCCC3440580220203A
:1029300010B50C4801880024046008B2FEF7CFF9F6
:10294000094A0A4BFDF762FF03229207084BFEF784
:10295000D1F9084B2246FEF7CDF9FDF76DFD06498A
:10296000086010BD60022020CDCCCCCCCCCC34C0D3
:10297000CA210940004045406802202010B50F24BC
:10298000204601F0DFF9204601F0E6F91324204645
:1029900001F0D8F9204601F0DFF9FFF777FA0120BE
:1029A00001F0DAF910BD000010B500207F49802247
:1029B0000B4600241C70521E0833002AF9D1491C12
:1029C000401C0828F3D100F0BFF810BD80B50028E6
:1029D00003D0012805D1A72000E0A620002100F0A7
:1029E000AFFD80BDB0B5002804D001280CD1A024D3
:1029F000C02001E0A124C8200025294600F0A0FD48
:102A00002046294600F09CFDB0BD000010B543B241
:102A1000002B10D43F290ED807240C400123A340DB
:102A2000C000624C2018C908445C002A01D01C4335
:102A300000E09C43445410BD70B5AE2000242146F4
:102A400000F07EFD2046214600F07AFD1020214650
:102A500000F076FD40263046214600F071FD8120D1
:102A6000214600F06DFDCF20214600F069FDA12038
:102A7000214600F065FDC820214600F061FDA62535
:102A80002846214600F05CFDA820214600F058FDB4
:102A90003F20214600F054FDD320214600F050FD98
:102AA0002046214600F04CFDD520214600F048FD8F
:102AB0008020214600F044FDD920214600F040FD51
:102AC000F120214600F03CFDDA20214600F038FDDF
:102AD0001220214600F034FDDB20214600F030FDBD
:102AE0003046214600F02CFD2020214600F028FD34
:102AF0000220214600F024FD8D20214600F020FD1B
:102B00001420214600F01CFDA420214600F018FDF1
:102B10002846214600F014FDFFF746FFAF2021466E
:102B200000F00EFD2046FFF751FF2046FFF75AFF49
:102B3000FFF73AFF70BD0122002903D04243491E2E
:102B40000B06FBD110467047F0B581B00025174E3B
:102B500028465038C0B20024214600F0F1FC20463F
:102B6000214600F0EDFC1020214600F0E9FCFFF7C3
:102B7000F8FB7820FFF7CCFBFFF71FFC4020FFF7A6
:102B8000C7FBFFF71AFC802437463878FFF7C0FBF5
:102B9000FFF713FC641E0837002CF6D1FFF7F6FB95
:102BA000761C6D1C082DD3D101B0F0BD7002202021
:102BB000F0B585B0002B27D01C460A9F7D08082F52
:102BC00000D1AD1C0B9B0493002601AB07C3F0435F
:102BD0000019C1B20220FFF7AEFF0146039801F0D1
:102BE000F3FB0499009129467143019A8918C9B2EF
:102BF000012202403032084602993B4600F006F8B6
:102C0000761CF0B2A042E2D305B0F0BDF0B589B0B9
:102C10000F46082B01D1062407E05C07DD08002CD5
:102C200000D06D1C5C086C43E4B20494102B41D1BD
:102C3000049C002C3ED00E9C65420794654108958B
:102C4000203AD2B2002514011B4A121900922A46DA
:102C5000064601950595039302900098855C0697BA
:102C6000019C09E0F0B2F9B2FFF7D0FE601C7F1CB6
:102C70006D08072C044604D2E807089AF2D0079A98
:102C8000F0E7741CE1B202980A1A082A02D0039BEA
:102C9000069F02E0069F0837039B082A064600D0DD
:102CA0002646102B06D1059A521C0592D2B2049CDE
:102CB0009442D2D809B0F0BDA84F0000F0B58BB057
:102CC0001F4614460D460990002220461946134619
:102CD00001F0FDFC139A129E119908911099079129
:102CE00000280A92069507D100922B2209982946BE
:102CF0003346FFF78BFF1BE0002220463946134680
:102D000001F0DAFC002808D00A98009020220998E7
:102D100029463346FFF77AFF0AE00A9800902D22F1
:102D2000099829463346FFF771FF0120C007474045
:102D3000039620463946FDF78DFF0590FDF7D7FF36
:102D400002460B4620463946FDF73DFD04460D463A
:102D50000A200899FFF7EFFE0746FDF7C8FF024675
:102D60000B4620462946FDF7C5FF01F0EFFDFDF7B4
:102D700071FF0490394601F027FB00960A990191F2
:102D800005994218304608384142414148007108CF
:102D90004518099FE8190595C0B2069C2146079E73
:102DA000334600F01BF80A980090701C6843C01965
:102DB000C0B22E222146039D2B46FFF727FF009528
:102DC0000A980190B01C05994843C019C0B2214629
:102DD000049A089B00F002F80BB0F0BDF0B587B084
:102DE00003AC07C40C990691083948424841002BAE
:102DF00033D01C4640000D990291069949084518A8
:102E0000002711E00298009030200143CAB2284602
:102E1000784303994018C0B20499069BFFF7F6FE69
:102E20007F1CF8B2A04218D2F8430019C1B20A269A
:102E30003046FFF780FE0146059801F0C5FA31469D
:102E4000FDF7FAF90029DDD1029800902846784371
:102E500003994018C0B23022DEE707B0F0BDF0B5EC
:102E600085B00493164607460B9D0A9C012A0391E0
:102E700006DB00952B2238462346FFF7C7FE10E0FD
:102E8000002E07D000952D2238462346FFF7BEFEC0
:102E9000764206E00095202238462346FFF7B6FE2C
:102EA0000026009401956008C019082C01D00399F0
:102EB00001E0801C0399C0B23246049BFFF78EFFED
:102EC00005B0F0BDF0B583B0064617783846203817
:102ED000C0B25E281CD8082B01D05D0800E0062592
:102EE00008980190541C029501980090F0B2FAB233
:102EF0000D461F46FFF78AFE3B462946029D76197E
:102F0000601C27783A46203AD2B25F2A0446EBD3B7
:102F100003B0F0BDF0B589B062480078401E0828C3
:102F200000D98EE24000C046784480884000874443
:102F300008006600E30026017201B401F6013802C0
:102F40008A02012400942E20002657A21025314623
:102F50002B46FFF7B7FF56480278009501940723E8
:102F6000304608962946FFF723FE5248026800952E
:102F70000194502029462346FFF730FF4E48006851
:102F8000FEF7B6F8024600950194642029462346D0
:102F9000FFF765FF00942021079148A230462B4699
:102FA000FFF790FF48480068FDF7C8FF02460B4650
:102FB0000227032600960197069702950394412065
:102FC0000799FFF77BFE41480068FDF7B7FF02460F
:102FD0000B460096019702950394302708983946CE
:102FE000FFF76CFE3A480068FDF7A8FF02460B4663
:102FF0000096069801900295039446201CE2012653
:10300000009628200025089532A210242946234640
:10301000FFF758FF009631A2284621462346FFF7C6
:1030200051FF30480068FDF789FF02460B46022534
:1030300003210791009101950695029403962320A0
:1030400005902146FFF73AFE0096202726A2089811
:1030500039462346FFF736FF22484068FDF76EFFEA
:1030600002460B4607980090019502940396059D31
:1030700028463946FFF722FE009630271CA2089802
:1030800039462346FFF71EFF16488068FDF756FFB6
:1030900002460B4607980090069801A951C12846A0
:1030A000CAE1C046500020204D61696E000000005A
:1030B000100220201C02202014022020545F537094
:1030C0006565643A000000000000202058022020BE
:1030D00068022020416E676C650000005069743AF8
:1030E0000000000084082020526F6C3A00000000AD
:1030F0005961773A00000000012400941A27002645
:103100000896EEA210253846079731462B46FFF762
:10311000D9FE0094F34A304629462B46FFF7D2FEEB
:10312000E9480068FDF70AFF02460B4603260096B1
:1031300001960295039438462946FFF7BFFD009497
:103140002027EA4A089839462B46FFF7BBFEF94884
:103150004068FDF7F3FE02460B4600960196029585
:10316000039407983946FFF7A9FD00943027E04AF9
:10317000089839462B46FFF7A5FEEE4841E00124AA
:1031800000941A2700260896E6A2102538460797CD
:1031900031462B46FFF796FE0094D24A3046294628
:1031A0002B46FFF78FFEE2480068FDF7C7FE024698
:1031B0000B4603260096019602950394384629464D
:1031C000FFF77CFD00942027C84A089839462B4613
:1031D000FFF778FED6484068FDF7B0FE02460B4682
:1031E000009601960295039407983946FFF766FD0D
:1031F00000943027BE4A089839462B46FFF762FEF6
:10320000CB488068FDF79AFE02460B460096019671
:10321000029503940FE1012600961E2000250895D3
:10322000BCA2102429462346FFF74CFE0096AD4A67
:10323000284621462346FFF745FEB9480068FDF7BA
:103240007DFE02460B4603250095019502940396E8
:103250001A2007902146FFF731FD00962027A34A48
:10326000089839462346FFF72DFEAD484068FDF724
:1032700065FE02460B460095019502940396079859
:103280003946FFF71BFD00963027994A08983946C2
:103290002346FFF717FEA248C4E00126009614203B
:1032A0000025089596A2102429462346FFF70AFE1A
:1032B00000968C4A284621462346FFF703FE944891
:1032C0000068FDF73BFE02460B460325009501957D
:1032D000029403961A2007902146FFF7EFFC009610
:1032E0002027824A089839462346FFF7EBFD884895
:1032F0004068FDF723FE02460B46009501950294B7
:10330000039607983946FFF7D9FC00963027784A8C
:10331000089839462346FFF7D5FD7D4882E001260F
:1033200000961E200025089572A2102429462346E7
:10333000FFF7C8FD00966B4A284621462346FFF753
:10334000C1FD62480068FDF7F9FD02460B46032502
:1033500000950195029403961A2007902146FFF7E5
:10336000ADFC00962027614A089839462346FFF7AE
:10337000A9FD56484068FDF7E1FD02460B46009561
:1033800001950294039607983946FFF797FC00963B
:103390003027574A089839462346FFF793FD4B4894
:1033A00040E0012600961C20002508954AA2102422
:1033B00029462346FFF786FD00964A4A28462146BD
:1033C0002346FFF77FFD48480068FDF7B7FD02463A
:1033D0000B46032500950195029403961A20079049
:1033E0002146FFF76BFC00962027404A0898394693
:1033F0002346FFF767FD3C484068FDF79FFD024606
:103400000B46009501950294039607983946FFF7FD
:1034100055FC00963027364A089839462346FFF770
:1034200051FD31488068FDF789FD02460B46009545
:1034300001950294039607983946FFF73FFC00F088
:103440007BF809B0F0BD21480068FDF777FD024622
:103450000B46012610240327009701970294039638
:10346000002528462946FFF729FC18484068FDF743
:1034700065FD02460B460097019702940396284685
:103480002146FFF71BFC12480068FDF757FD024676
:103490000B46009701970294039620212846FFF7D8
:1034A0000DFC0C480068FDF749FD02460B460097ED
:1034B00001970294039630212846BEE74D6F746F42
:1034C00072315F5049440000FC002020C4002020DD
:1034D000040720200C022020416E676C655F504974
:1034E00044000000D455000054002020D0550000B6
:1034F000CC5500004779726F5F50494400000000CE
:1035000044697374616E63655F5049440000000054
:103510008C0020205475726E5F50494400000000FA
:103520006C0120204D6F746F72325F50494400006F
:1035300034012020FC00202080B5FFF705FB80BD72
:10354000B0B50D460446FEF70CFF7820FEF7E0FE0E
:10355000681E8541AD01FEF730FF2846FEF7D8FE14
:10356000FEF72BFF2046FEF7D3FEFEF726FFFEF701
:103570000DFFB0BDB0B50446C2600161104601F058
:10358000FDFB05466061216801F0A0FB20626168D7
:10359000284601F09BFB0146606A01F0D3FA6062A5
:1035A000606BFDF7F7FD01462046243000F021F85E
:1035B0006069A16901F0E2FB0146A06801F086FBA9
:1035C0000546A062206A616A01F0BCFA01462846FD
:1035D00001F0B8FAE062206BFDF7DCFD0146204601
:1035E0002C3000F006F86069A169A061E161E06A31
:1035F000B0BDB0B50C460546006801F08BF8002858
:1036000000D12C600120C00744402868214601F009
:1036100076F8002800D12C60B0BD02688A4200DD37
:103620000160494202688A4200DA01607047000086
:1036300080B582B02E480178002956D00020019034
:10364000491E042949D8C0467944097949008F4464
:10365000022912341D002A49087027490870274999
:103660000870244908702B480078022830D00128BF
:1036700033D12A482DE01F4901220A701E490870E3
:103680001E4908701E490870204822E01949087038
:103690001949087019490870194801210170194821
:1036A000806817E013490870134901220A70134912
:1036B00008701349087016480BE00E4908700E494F
:1036C00008700E48012101700D4801700E4800E09D
:1036D00011480068FDF70CFD01900220012101AAAC
:1036E000042300F037FE00F0FFFC02B080BDC046AE
:1036F0000400202009022020520020200A0220205D
:1037000008022020840820200C0220204C022020C7
:10371000140220205100202068022020580220207E
:1037200010B50C4600F08AF9204600F0CDF910BD26
:10373000F0B581B02D2005252946FEF70FF90127A8
:103740007905D74C2046FEF7B5F82E202946FEF71E
:1037500005F9B9052046FEF7ADF825252846FEF700
:10376000F5F826263046FEF7F1F82846FEF790F8E1
:103770003046FEF78DF814200221FEF7EFF8FEF731
:10378000DDF82A20FEF7C6F80820FEF7C3F8072068
:10379000FEF7C0F80620FEF7BDF82220FEF7A6F8D7
:1037A0002320FEF7A3F82720FEF7A0F83520FEF728
:1037B000BDF83420FEF7BAF81620FEF79FF8172060
:1037C000FEF79CF81820FEF799F81920FEF796F8F6
:1037D0000D20FEF79FF80E20FEF79CF80F20FEF755
:1037E00099F81E20FEF796F83320FEF77FF82F2079
:1037F000FEF77CF83B20FEF779F82C20FEF776F8F0
:103800002B20FEF773F82120FEF770F82020FEF73A
:103810006DF880212046FEF725F80F4D20462946F9
:10382000FEF7CCF8803520462946FEF743F8BF4C1A
:103830000A492046FEF716F879042046FEF7BEF83E
:1038400007492046FEF736F8FEF7AEF8FDF7FAFF17
:10385000FEF726F801B0F0BD1C0080010C4000000E
:103860000C40020080B50A480A49FEF731F9FEF71C
:1038700025F9FEF7B9F8FEF71BF9FEF74FF9FEF749
:1038800043F9FEF739F9FEF7BDF8FEF7B5F880BD4C
:1038900000200F409855000070B582B0894C19493E
:1038A0002046FEF7E5FA18492046FEF787F900257D
:1038B000204629462A46FEF7D3FA00952046294697
:1038C0002A462B46FEF7C0FA204629462A46FEF72E
:1038D000ADFA0126204629463246FEF7C1FA009687
:1038E000204629462A462B46FEF7AEFA20462946B0
:1038F0003246FEF79BFA2046FEF798F9FEF790FA5B
:1039000002B070BD9A550000A055000080B5FEF7CA
:103910003BF9FEF749F9FEF725F9FEF72DF9FEF719
:1039200039F980BD10B53D4C08492046FEF7A0FA94
:1039300007492046FEF7F4F9FEF77CF91320012130
:1039400000F014FA2046FEF771F910BDA8550000EA
:10395000AC55000010B50B4C0B492046FEF712FB8E
:103960000A492046FEF7C2FAFEF716FBFEF7F0FA08
:10397000FEF7A2FA0F20002100F0F8F9FEF796FA00
:1039800010BDC04600801040C0550000C255000068
:1039900080B500F017F8FFF7CBFEFFF7B7FFFFF792
:1039A0007BFFFFF7BFFFFFF75DFFFFF7D3FFB820F7
:1039B000024900220A5402490A5480BDC807202047
:1039C0000C072020F0B581B0354C2046FDF7E6FF0E
:1039D000564D2846FDF7E2FF3A4E3046FEF718FAFC
:1039E0000E4F3846FEF714FAFEF75AF8FEF7A8FA1B
:1039F0002046FDF76DFF2846FDF76AFF3046FEF7CB
:103A000021F93846FEF71EF9FEF704F8FEF75EFAD4
:103A10001020FDF705FF01B0F0BDC0460020864034
:103A200080B582B0019001A82549FFF7F6FD019904
:103A300024480122FEF714FA02B080BDB0B5174940
:103A40000978174D394C01290CD1002819D4FFF7FA
:103A5000E7FF80212846FDF7BBFF04212046FDF744
:103A60000BFFB0BD80212846FDF706FF042120464C
:103A7000FDF702FFA4480021016241628162C16238
:103A8000B0BD4042FFF7CCFF80212846FDF7F4FE91
:103A900004212046FDF79CFFB0BDC0463C0220201B
:103AA00000000A4080B582B0019001A80449FFF7E8
:103AB000B4FD019903480022FEF7D2F902B080BD9F
:103AC0000F27000000008640B0B501218C03164985
:103AD0000978164D01290CD1002819D4FFF7E2FF0F
:103AE00008212846FDF7C8FE28462146FDF770FF4D
:103AF000B0BD08212846FDF7BFFE28462146FDF748
:103B0000BBFE83480021016241628162C162B0BD97
:103B10004042FFF7C7FF08212846FDF759FF284616
:103B20002146FDF7A9FEB0BD3D02202000200A403D
:103B300010B500240EC044618461C461046210BDEC
:103B400010B582B001AC01232246FEF7ADFB207810
:103B500002B010BD10B582B001AC22700123224624
:103B6000FEF750FC02B010BDB0B5FEF773F80228A6
:103B700000D096E04B480188491C018089B20A298F
:103B80007BD300240480FEF7BBFCFDF73DFDFEF770
:103B900035FB45490870FEF7A9FA4448007800282B
:103BA00019D043480078002808D1424802684248AA
:103BB00081684248FFF7DEFC4149086040480268DE
:103BC000404801684048FFF7D5FC0121C907414042
:103BD0003E4A116037E03E480078012808D13D4850
:103BE00002683D4801683D48FFF7C4FC3C49086055
:103BF0003B4D3C480078012818D12868002100F08E
:103C000073FD002812D138480268384801683848E6
:103C1000FFF7B0FC296801F059F8FDF78FF9354A34
:103C2000354BFDF767F8FCF707FC044633480460A2
:103C30002D682846214600F085FF24490860284663
:103C4000214601F09BF82E4D2860FEF7D7FC1F4857
:103C500002682C4801682C48FFF78CFCFDF748FAF5
:103C600004462A68294801682948FFF783FCFDF7C4
:103C70003FFA01462046FFF753FD26480188491CBC
:103C80000180254A13885B1C9CB2632C00D9002359
:103C9000138089B2C9087D2903D300210180FDF773
:103CA0009DFEB0BDF2062020100220200802202038
:103CB0000A022020F806202084082020540020201A
:103CC000040720200C022020C40020205C022020B9
:103CD00009022020000720204C0220208C002020F8
:103CE000000020205200202020022020140220204A
:103CF0006C0120207B14AE47E17AA43FFC06202013
:103D00006C02202058022020FC0020206802202085
:103D100034012020F4062020F006202010B582B0C7
:103D200001208402FEF7DAF8A04209D1FEF702F979
:103D300001AA10700121104600F01EF9FEF7AEF83E
:103D400002B010BD1F2101400120884001490860D8
:103D50007047C04680E200E01F21014001208840FA
:103D6000014908607047C04600E100E010B5C0B2EC
:103D70008207D20EFF239340054C00190324A04371
:103D800004689C438901C9B291402143016010BD80
:103D900000E400E0BFF34F8F034804490160BFF324
:103DA0004F8F00BFFDE7C0460CED00E00400FA05B0
:103DB000002A05D00B781818491C521E1306F9D199
:103DC000C0B2704780B54001FDF72AFD80BD89185B
:103DD000491E4A0E8A187F239A43891A405C70470D
:103DE0004A1D7F231A40825C891D1940405C0002F5
:103DF000801880B2704709317F220A40805C70478A
:103E0000F0B581B0009104460068216900F09AFE87
:103E100005466060616900F095FE01462846FDF7A1
:103E2000B7F80746E060A6680098314600F0A6FFA4
:103E30000146384600F04AFF0146304600F082FE57
:103E4000A0607F20C005394600F098FF0146284653
:103E500000F03CFF206001B0F0BDFFF799FDFEF7D8
:103E6000EBFD00F00BF800F033F9FEF787FDFEF7ED
:103E7000F9FAFFF74FF8FFF7DBFBF8E7F0B583B08F
:103E800068246B21029100222046FFF763FE19216E
:103E9000019109222046FFF75DFE1A2100910622BA
:103EA0002046FFF757FE1B251827204629463A468D
:103EB000FFF750FE1C26204631463A46FFF74AFEE1
:103EC00020460299FFF73CFE0B4F387020460199BF
:103ED000FFF736FE787020460099FFF731FEB87084
:103EE00020462946FFF72CFEF87020463146FFF7A2
:103EF00027FE387103B0F0BDF8082020F0B585B07A
:103F000014460F46054668203B2101AE0E2332467B
:103F1000FEF7CAF970780199090208183880F0781C
:103F2000B178090208187880707902990902081896
:103F3000B880707A0399090208182880F07AB17A5B
:103F4000090208186880707B049909020818A88083
:103F5000F079B1790902081800B2FDF713F90449A4
:103F6000FDF716F8034900F0EDFD206005B0F0BD47
:103F70000000AA43B81E1242B0B50C460246584D86
:103F8000E9882868234600F0C7F9E88800197F21EE
:103F90000140E980B0BDC046F0B583B00291019008
:103FA0004F4FFD88BE883C89204631462A4600F0A6
:103FB000A3F981B2FF23092900D285E0788900287E
:103FC0003A4621D0002C0AD10D46918810681C4633
:103FD000FFF706FF2346424A1081854274D3968834
:103FE0001468A1191789F519822D009524D37F2013
:103FF000C043801BC2B20020FFF7DAFE691E802298
:104000004A40D2B221461AE0009310680F4631466A
:104010003A4600F045F9010435D4314EB080012113
:10402000718181B220462A4600F066F9092832469D
:10403000009B394648DBC5E7781EC2B20020FFF777
:10404000B7FE274905460C68204631463A46FFF739
:10405000BEFE854213D1009881281FD3A11980206C
:10406000801B84B2019D28462246FCF7A3F828193C
:104070001B4D29890A1B2968FCF79CF814E0701C69
:10408000FF23174D1BE0F019C01E410E41187F227F
:104090009143401A12498880009B15E0A1190198AC
:1040A0003A46FCF787F80E4D28890299088028685F
:1040B000AC882146FFF79FFE03462889001900219E
:1040C000A9607F210140A980184603B0F0BDC04619
:1040D00003490020034A0A60486088607047C04670
:1040E000E8082020FD082020F0B5A3B002A8002198
:1040F000019101805C4F5F4E04E001205B49087034
:104100005B49087003A802A9FFF746FF103805288D
:1041100000D9A3E078440079400087440235515D1E
:10412000A36803A93878401E0428EBD84A7D1206FC
:104130000B7D1B049A18CB7C1B02D2188B7CD318E6
:104140004A7C12060D7C2D04AA18CD7B2D02521933
:104150008D7B52194D7B2D060C7B24046419CD7A7E
:104160002D026419897A61187844007940008744E7
:10417000024C50545800307802286BD00128C1D12D
:104180004648FFF7D5FCBDE703A83978491E042946
:10419000B8D8427B1206037B1B049A18C37A1B0211
:1041A000D218807A1018C0467944097949008F44A2
:1041B00002023C414600FCF7E5FF32490860A1E7F6
:1041C0003878012800D098E7307802283CD00128C0
:1041D00000D097E7012093E73878012813D1307891
:1041E000022833D0012800D08CE7019888E738787E
:1041F000012800D086E73078401CC1B2022900D9DE
:10420000012030707EE7019878E72248FFF790FCA4
:1042100078E71F48FFF78CFC74E71C48FFF788FC21
:1042200070E71948FFF784FC6CE7FCF7ABFF144913
:10423000086067E7FCF7A6FF1049086062E7FCF733
:10424000A1FF0D4908605DE7012000E001980749E2
:10425000087057E71048FFF76BFC53E70198C0431D
:1042600023B0F0BDFFF796FD040020203D02202082
:104270003C02202051002020F806202004072020A6
:10428000000720200000202054002020C40020200F
:104290008C0020206C01202034012020FC002020F4
:1042A000F0B582B00027FB43042A21D30093D21E2D
:1042B00001923E467B187F271A463A40855C5C1C7B
:1042C0003C40045D240264199D1C3D40455D2D0465
:1042D0006419DB1C3B40C35C1B06E318384CA3424B
:1042E00007D0761CB7B2019ABA42E3DC009A00E02C
:1042F0001A46104602B0F0BD10B500238A4201D321
:104300001C4600E00124E401611A89188AB2824245
:1043100000D30B4698B210BDF0B581B01C461546CF
:104320000646581881280ED370188022511A8FB271
:1043300029463A46FBF73EFFE919E21B3046FBF7F8
:1043400039FF01B0F0BD701829462246FBF732FF55
:1043500001B0F0BDF0B583B001920246174E0020C7
:104360003072F071164C346002AD28707272317187
:1043700099060F0E39460B317171090AB1710A2283
:1043800000923146FFF714FD2870019C21463A4601
:10439000FFF70EFD28700B4A304600991646FDF7D0
:1043A0008DFE204639463246FDF788FE012128461B
:1043B0003246FDF783FE03B0F0BDC04684092020DD
:1043C000535A4859FFFF0F0043088B421AD300226B
:1043D00003098B4279D3030A8B425ED3030B8B42D2
:1043E00042D3030C8B4227D30902FF2212BA030CDB
:1043F0008B4202D31212090203D0030B8B4233D338
:104400001AE0D3E0411A8041401C704703460B4339
:1044100071D443088B42F5D3002203098B4254D355
:10442000030A8B4239D3030B8B421DD3030C8B42FF
:1044300002D394466EE0090AC30B8B4201D3CB032F
:10444000C01A5241830B8B4201D38B03C01A5241D5
:10445000430B8B4201D34B03C01A5241030B8B42D7
:1044600001D30B03C01A5241C30A8B4201D3CB02C2
:10447000C01A5241830A8B4201D38B02C01A5241A7
:10448000430A8B4201D34B02C01A5241030A8B42AA
:1044900001D30B02C01A5241CDD2C3098B4201D3C2
:1044A000CB01C01A524183098B4201D38B01C01A40
:1044B000524143098B4201D34B01C01A52410309B7
:1044C0008B4201D30B01C01A5241C3088B4201D366
:1044D000CB00C01A524183088B4201D38B00C01A13
:1044E000524143088B4201D34B00C01A5241411A3A
:1044F000524110007047CA0F00D04942031000D348
:104500004042534000229C4603098B422DD3030AAC
:104510008B4212D38901FC2212BA030A8B420CD3BC
:10452000890192118B4208D3890192118B4204D3E5
:10453000890137D0921100E08909C3098B4201D368
:10454000CB01C01A524183098B4201D38B01C01A9F
:10455000524143098B4201D34B01C01A5241030916
:104560008B4201D30B01C01A5241C3088B4201D3C5
:10457000CB00C01A524183088B4201D38B00C01A72
:104580005241D9D243088B4201D34B00C01A524149
:10459000411A00D201465241104663465B1000D3D7
:1045A0004042704763465B1000D3404201B5002192
:1045B000004201D0C9430846C046C04602BD0000C3
:1045C0004900CA020243100000D004204A0D01D065
:1045D00001221043044A490D914201D102210843AE
:1045E000012800D105207047FF070000F8B50446F8
:1045F0004F1EC8000838211815461E46086849682D
:104600003A4606239A4310D02A463346FCF772FBFB
:104610003A46D200083AA3181A687F1E5B68FCF776
:10462000C5F806223B469343EED1022F23D0042F38
:1046300011D0062F2FD12A463346FCF75BFBE36AE5
:10464000A26AFCF7B3F82A463346FCF753FB636AC9
:10465000226AFCF7ABF82A463346FCF74BFBE369CA
:10466000A269FCF7A3F82A463346FCF743FB6369CB
:104670002269FCF79BF82A463346FCF73BFBE368CC
:10468000A268FCF793F82A463346FCF733FB6368CD
:104690002268FCF78BF8F8BD10B50122FCF700FE8C
:1046A00010BD0000034A10B500201107FCF7F8FD0B
:1046B00010BD000001FDFFFF10B500F0ABF9EFF3F6
:1046C0000080400001D5012010BD002010BD10B5B4
:1046D00000F0D2F9EFF300804000800F012801D0F4
:1046E000012010BD002010BD10B500F071FAEFF3ED
:1046F0000080400001D5012010BD002010BD10B584
:1047000000F090FAEFF30080800001D5012010BD89
:10471000002010BD10B500F0AFFAEFF300804000AC
:10472000800F012801D0012010BD002010BD000025
:10473000F0B589B004460D4648000691724940081C
:10474000884215DB7149884203DC884207D1002C7E
:1047500005D020462946FFF79FFF09B0F0BD6C4801
:10476000002D02DD6B4909B0F0BD6B4909B0F0BD09
:104770006A49884211DA6A4988420BDA204629469A
:10478000FFF71EFF042801D1FFF78CFF20462946C2
:1047900009B0F0BD0026F6435DE06D0061496D088B
:1047A000884232DA6049884219DA0026012332460B
:1047B0009B0720462946FBF7F9FF07460191012296
:1047C00020462946FCF76CFD0022584BFBF7FBFF07
:1047D0003A46019BFCF71AF804460D463BE00126D9
:1047E0000022524B20462946FBF7E0FF0746009186
:1047F00000224E4B20462946FBF7E5FF3A46009B38
:10480000FCF704F804460D4625E04949884219DAC8
:1048100002260022474B20462946FCF76BFA00226D
:10482000424BFBF7C3FF074602910022414B204653
:104830002946FBF7C8FF3A46029BFBF7E7FF044611
:104840000D4608E0032622462B4600203A49FBF796
:10485000DDFF04460D4622462B4610461946FCF75E
:1048600049FA07460B4602460191FCF743FA024615
:10487000029032480B46039106217844FFF7B6FEBA
:104880003A46019BFCF736FA00902D48019105212C
:104890007844039B029AFFF7A9FE039B029AFCF758
:1048A00029FA02460B4601990098002E0BDAFBF715
:1048B0007DFF22462B46FCF71DFA22462B46FBF7CE
:1048C0008DFF09B0F0BDFBF771FF22462B46FCF7C8
:1048D00011FA1C4AF6007A4493191A685B68FBF7D0
:1048E00072FF22462B46FBF76EFF174A7A44931954
:1048F0001A685B68FBF772FF069A002AE1DA012268
:10490000D207514009B0F0BD000010440000F07F14
:10491000182D4454FB21F93FFB21F9BF0000DC3F77
:104920000000203E0000F33F0000E63F0000F03FA3
:10493000008003400000F83F0000F0BFFA060000CE
:10494000BC0600005606000020060000F0B513B4B7
:1049500006460199FCF72CFC04460D4602460B4620
:1049600030460199FBF72FFF064601981B4B0F4677
:1049700000280CDA0022304600F07EF80CD9002224
:10498000174B3046394600F0A9F81DD214E000223A
:10499000304600F071F808D20022124B204629461A
:1049A000FBF711FF04460D460EE000220C4B30468B
:1049B000394600F093F807D800220A4B20462946D2
:1049C000FBF7F4FE04460D46019A69004908D20F30
:1049D000D2072046114303B0F0BD00000000E0BF45
:1049E0000000E03F0000F03F70B50546FCF788FC92
:1049F00041000446FF204908C005411AC90F07D0ED
:104A000069004908401AC00F02D10120FCF7CAFB17
:104A1000204670BD70B501252D050C001C4310D437
:104A2000EC4206D4AC420AD4994200D070BD904208
:104A300070BDE94217D4EB4215D4994270BD89424A
:104A400070BDEC4206D5AC42F9D58B4200D070BDAA
:104A5000824270BD6D004C00EC4204D25C00EC421E
:104A600001D28B4270BD034C30B4FCF795FC30BCD6
:104A700070BD00BF1900120470B501252D050C0092
:104A80001C4310D4EC4206D4AC420AD4994200D064
:104A900070BD904270BDE94217D4EB4215D49942E3
:104AA00070BD894270BDEC4206D5AC42F9D58B424F
:104AB00000D070BD824270BD6D004C00EC4204D24B
:104AC0005C00EC4201D28B4270BD034C30B4FCF769
:104AD00063FC30BC70BD00BF1900160470B5012521
:104AE0002D051C000C4310D4EC4206D4AC420AD471
:104AF0008B4200D070BD824270BDEB4217D4E942B8
:104B000015D48B4270BD9B4270BDEC4206D5AC42C1
:104B1000F9D5994200D070BD904270BD6D005C0027
:104B2000EC4204D24C00EC4201D2994270BD0FB469
:104B30000CBC03BC024C30B4FCF72EFC30BC70BD86
:104B40001900160470B50125ED0704004C4020D46F
:104B5000441A01D2001B0919C60D4B00F2B2FF2AFC
:104B600029D01B0E2CD000020C0228432C43D31A50
:104B7000DC40051910D2280A02D3401C6D0611D062
:104B8000761EF6058019FF2A00DA70BDC00DC0053B
:104B900070BD694000F0F8F801200543C541521C82
:104BA000761CE8E764089C40C90161408900E7D1B0
:104BB0000124A043E4E71B0E440200D0034870BD6B
:104BC000002AFCD1C00FC00770BD00BF0000C07F2D
:104BD0000123DB0502000A430DD4DA4203D49A42D2
:104BE00007D488427047D84214D4D94212D488429C
:104BF000704780427047DA4203D59A42F9D5814224
:104C000070475B004200DA4204D24A00DA4201D225
:104C10008142704710B5024AFCF70EFC10BD00BF80
:104C2000090012040123DB0502000A430DD4DA4215
:104C300003D49A4207D488427047D84214D4D94248
:104C400012D48842704780427047DA4203D59A42B4
:104C5000F9D5814270475B004200DA4204D24A0033
:104C6000DA4201D28142704710B5024AFCF7E4FBF8
:104C700010BD00BF090013040123DB0502000A4335
:104C80000DD4DA4203D49A4207D488427047D842FE
:104C900014D4D94212D48842704780427047DA4215
:104CA00003D59A42F9D5814270475B004200DA424F
:104CB00004D24A00DA4201D28142704710B5024A5A
:104CC000FCF7BAFB10BD00BF0900160470B5420026
:104CD00064414B005C41120E39D01B0E38D0FF2AC4
:104CE0003CD0FF2B3AD0D2187F3A40024902400A0A
:104CF000490A4518ED0106004E43000A090A4843D7
:104D00000104731A4019190C4318990F04D05B0859
:104D1000012149075B1A521CD80904D3401CF50332
:104D200001D19D0607D0FF2A08D2D50506D0E40799
:104D30002043401970BD0125A843F4E7002A01DC97
:104D4000E00770BD2402FF202043C00570BD1B0E8C
:104D5000FF2A03D0FF2B01D0E00770BDFF263606E7
:104D60004500B54206D84D00B54203D8D218FF2AF7
:104D700000D0E7E7004870BD0000C07F70B5012596
:104D8000ED0704004C4022D4441A02D26C40001BB0
:104D90000919C60D4B00F2B2FF2A4BD01B0E50D0A2
:104DA00000020C02A8432C43D31ADC40051B05D596
:104DB000AD0019D36D08761E521E37D0F605280AAD
:104DC00001D2801970BD70416D0603D070BD69407D
:104DD000FFF7BEFE9C4009026140490001D0401E21
:104DE00070BD0124A04370BD6D081DD001202B0CA7
:104DF00001D12D0410302B0E01D12D0208302B0FC4
:104E000001D12D01001DAB0F01D1AD00801CEB0FB6
:104E100001D16D00401C361A121A6D00680AF505A2
:104E20004019012A02DB70BD002070BDC036300A77
:104E3000C00770BD1B0E440201D1FF2B00D10248F8
:104E400070BD002AF0D070BD0000C07F80807F7EE2
:104E50007D7C7B7A797877767675747372717170F0
:104E60006F6E6E6D6C6C6B6A6A69686867666665A2
:104E70006464636362616160605F5F5E5E5D5D5C30
:104E80005C5B5B5A5A5959585857575656555555A1
:104E90005454535352525251515050504F4F4F4E01
:104EA0004E4D4D4D4C4C4C4B4B4B4A4A4A4949494F
:104EB0004848484747474746464645454544444491
:104EC00044434343434242424241414181828384BD
:104ED00085868788898B8C8D8E8F919293959697F6
:104EE000999A9C9D9FA0A2A3A5A7A8AAACAEB0B278
:104EF000B3B5B7B9BCBEC0C2C5C7C9CCCED1D4D773
:104F0000D9DCDFE2E6E9ECF0F3F7FAFE000000009E
:104F10004FBB610567ACDD3F182D4454FB21E93FD1
:104F20009BF681D20B73EF3F182D4454FB21F93FC0
:104F3000E2652F227F2B7A3C075C143326A6813C46
:104F4000BDCBF07A8807703C075C143326A6913CF1
:104F5000C4EB98999999C9BF711623FEC671BCBF5D
:104F60006D9A74AFF2B0B3BF9AFDDE522DDEADBFC5
:104F70002F6C6A2C44B4A2BF0D5555555555D53FDD
:104F8000FF8300922449C23F6E204CC5CD45B73FF8
:104F9000513DD0A0660DB13FEB0D76244B7BA93F70
:104FA00011DA22E33AAD903F00000000000000005B
:104FB0000000000000000000000000F800000000F9
:104FC000000000333000000000100C06100C06003A
:104FD000000000000000000040C07840C0784000A1
:104FE000043F04043F040400007088FC0830000003
:104FF000001820FF211E0000F008F000E01800005B
:1050000000211C031E211E0000F008887000000013
:105010001E2123241927211010160E000000000065
:105020000000000000000000000000E01804020082
:10503000000000071820400000020418E0000000F3
:105040000040201807000000404080F080404000F1
:105050000202010F01020200000000F00000000047
:105060000101011F0101010000000000000000001B
:1050700080B0700000000000000000000000000090
:105080000001010101010101000000000000000019
:1050900000303000000000000000000080601804B4
:1050A000006018060100000000E010080810E00091
:1050B000000F102020100F00001010F8000000005A
:1050C0000020203F202000000070080808887000A1
:1050D0000030282422213000003008888848300021
:1050E0000018202020110E000000C02010F8000041
:1050F00000070424243F240000F8088888080800DA
:105100000019212020110E0000E0108888180000EE
:10511000000F112020110E0000380808C8380800C0
:105120000000003F00000000007088080888700040
:10513000001C222121221C0000E010080810E000C1
:105140000000312222110F00000000C0C00000004A
:10515000000000303000000000000080000000006F
:105160000000806000000000000080402010080067
:105170000001020408102000404040404040400030
:10518000040404040404040000081020408000000B
:105190000020100804020100007048080808F00010
:1051A0000000003036010000C030C828E810E000E0
:1051B0000718272423140B000000C038E00000006B
:1051C000203C23020227382008F8888888700000D5
:1051D000203F202020110E00C030080808083800A9
:1051E000071820202010080008F808080810E00020
:1051F000203F202020100F0008F88888E8081000C1
:10520000203F20202320180008F88888E808100094
:10521000203F200003000000C030080808380000CC
:1052200007182020221E020008F808000008F808CD
:10523000203F210101213F20000808F80808000054
:105240000020203F2020000000000808F808080087
:10525000C08080807F00000008F888C028180800FF
:10526000203F20012638200008F808000000000038
:10527000203F20202020300008F8F800F8F808002F
:10528000203F003F003F200008F830C00008F80829
:10529000203F200007183F00E01008080810E00039
:1052A0000F10202020100F0008F808080808F00050
:1052B000203F210101010000E01008080810E00073
:1052C0000F18242438504F0008F888888888700008
:1052D000203F2000030C30200070880808083800A8
:1052E0000038202121221C00180808F8080818009E
:1052F0000000203F2000000008F808000008F8081F
:10530000001F202020201F000878880000C83808CF
:10531000000007380E010000F80800F80008F80047
:10532000033C0700073C03000818688080681808E1
:1053300020302C03032C30200838C800C83808005F
:105340000000203F2000000010080808C8380800AE
:105350002038262120201800000000FE0202020052
:105360000000007F40404000000C30C00000000002
:10537000000000010638C00000020202FE0000002A
:10538000004040407F0000000000040202020400D0
:10539000000000000000000000000000000000000D
:1053A00080808080808080800002020400000000F5
:1053B00000000000000000000000808080800000ED
:1053C0000019242222223F2008F8008080000000DB
:1053D000003F112020110E0000000080808000009E
:1053E000000E112020201100000000808088F800AD
:1053F000000E112020103F200000808080800000DF
:10540000001F222222221300008080F08888881842
:105410000020203F2020000000008080808080004D
:10542000006B94949493600008F8008080800000E2
:10543000203F210000203F200080989800000000BD
:105440000020203F202000000000008098980000ED
:1054500000C08080807F000008F80000808080000D
:10546000203F24022D302000000808F80000000032
:105470000020203F202000008080808080808000ED
:10548000203F20003F20003F80800080808000007F
:10549000203F210000203F2000008080808000000D
:1054A000001F202020201F0080800080800000003E
:1054B00080FFA12020110E0000000080808080006D
:1054C000000E112020A0FF8080808000808080005E
:1054D00020203F212000010000008080808080008B
:1054E0000033242424241900008080E08080000000
:1054F0000000001F2020000080800000008080004D
:10550000001F202020103F208080800000808080AD
:1055100000010E300806010080800080008080803D
:105520000F300C030C300F00008080008080800062
:105530000020312E0E31200080808000008080808D
:1055400080818E701806010000808080808080003D
:105550000021302C2221300000000000807C02025B
:1055600000000000003F404000000000FF0000007D
:1055700000000000FF0000000002027C800000002C
:105580000040403F00000000000601010202040448
:1055900000000000000000000800080001000000FA
:1055A00010270000200101000807FF002200000072
:1055B0000F000000010000000000000000000000DB
:1055C0000800000018000000003000004B643A00A2
:1055D0004B693A004B703A00F8550000000020205B
:1055E000A8010000B215000050560000A8012020BC
:1055F000E80D0000080100002134F04105C50AD77C
:10560000A33C08092E6F12833A0C020B3F18340199
:10561000010163A0400324F0414BE80304215A2018
:10562000306940011E4B0F2704B808EC51B83D8F7C
:10563000C27590092238211BC8426C197469780917
:105640005E3869D8293C092A382100000000000092
:04000005000000C136
:00000001FF
